:100000000C942A000C945A000C943F000C943F006E
:100010000C943F000C943F000C943F000C943F0064
:100020000C943F000C943F000C943F000C943F0054
:100030000C943F000C943F000C943F000C943F0044
:100040000C943F000C943F000C943F000C943F0034
:100050000C943F0011241FBECFE5D4E0DEBFCDBF1E
:1000600010E0A0E6B0E0EEE5F1E002C005900D92F0
:10007000A236B107D9F70E948E000C94AD000C9403
:100080000000839906C08091600090916100059600
:1000900007C0849909C08091600090916100059724
:1000A0009093610080936000809160009091610066
:1000B0008CBF08951F920F920FB60F9211242F93A9
:1000C0003F934F935F936F937F938F939F93AF93E0
:1000D000BF93EF93FF93809904C0A39885B7806680
:1000E00085BF80B380B380B3839902C00E94410072
:1000F000849903C00E94410015BAFF91EF91BF910E
:10010000AF919F918F917F916F915F914F913F91AF
:100110002F910F900FBE0F901F901895D09A8FE7D8
:1001200082BBA09A83B7846683BFBB9A85B783607E
:1001300085BF8BB780648BBF8FB780688FBF0E94ED
:10014000410041E028EB30E045BB8FEF9FEFF90124
:0E0150003197F1F70197D9F7F7CFF894FFCF69
:02015E0001009E
:00000001FF
